:020000040800F2
:10000000C8550020E9020008492F0008D32B00083A
:10001000452F00082106000869380008000000008C
:10002000000000000000000000000000290200089D
:10003000630800080000000085020008612F000826
:100040000303000803030008030300080303000878
:100050000303000803030008030300080303000868
:10006000030300080303000803030008B90600089F
:10007000C9060008D9060008E9060008F9060008C4
:1000800009070008190700080303000835060008DF
:100090002506000803030008030300080303000803
:1000A00003030008453000080303000803030008A9
:1000B0000303000803030008030300080303000808
:1000C00003030008030300080303000803030008F8
:1000D0000303000803030008393800084938000802
:1000E00003030008030300080303000803030008D8
:1000F000030300080303000803030008290700089E
:1001000003030008030300080303000803030008B7
:1001100065310008DD31000803030008030300080F
:10012000030300083907000803030008030300085D
:100130000303000803030008030300085506000832
:100140000303000845060008030300080303000832
:100150000303000849070008030300085938000892
:100160000303000803030008030300080303000857
:100170000303000803030008030300080000000055
:10018000030300080303000800F002F800F03CF845
:100190000AA090E8000C82448344AAF10107DA45E2
:1001A00001D100F031F8AFF2090EBAE80F0013F0F8
:1001B000010F18BFFB1A43F001031847685A0000EB
:1001C000885A0000103A24BF78C878C1FAD852077C
:1001D00024BF30C830C144BF04680C6070470000C1
:1001E0000023002400250026103A28BF78C1FBD840
:1001F000520728BF30C148BF0B6070471FB505F0DC
:10020000E3FC1FBD10B510BD00F0D5F91146FFF796
:10021000F5FF03F04BFB00F0F3F903B4FFF7F2FF37
:1002200003BC00F0F7F900002C4B19680868B0E82F
:10023000F04F80F30988BFF36F8F4FF0000080F319
:10024000118870470000000008480068006880F3CB
:1002500008884FF0000080F3148862B661B6BFF3DF
:100260004F8FBFF36F8F00DF00BF00BF08ED00E0CE
:10027000DFF80C00016841F470010160704700BFB5
:1002800088ED00E0EFF30980BFF36F8F134B1A681E
:100290001EF0100F08BF20ED108A20E9F04F10600B
:1002A00009B44FF0500080F31188BFF34F8FBFF3B4
:1002B0006F8F04F0E7FC4FF0000080F3118809BC59
:1002C00019680868B0E8F04F1EF0100F08BFB0ECD6
:1002D000108A80F30988BFF36F8F70471C000020DD
:1002E000EFF3058070470000094880470948004740
:1002F000FEE7FEE7FEE7FEE7FEE7FEE7FEE7FEE7D6
:10030000FEE7FEE704480549054A064B7047000032
:100310003130000889010008C84F0020C85500206E
:10032000C8510020C851002053EA020C00F0698037
:100330002DE9F04B4FF00006002B1FBFB3FA83F5F9
:1003400003FA05F424FA05F65E4012BF1643B2FA2A
:1003500082F502FA05F4C5F120051EBF22FA05FC5C
:1003600044EA0C04203556EA044C4FEA144418BF02
:10037000641C4FF000084FF00009904271EB030C31
:1003800039D3002919BFB1FA81F701FA07F6B0FA9B
:1003900080F700FA07F6C7F120071EBF20FA07FC16
:1003A00046EA0C062037B6FBF4FCA7EB0507103F26
:1003B00007F01F0BCBF120060CFA0BFB2CFA06F60C
:1003C00044BFB3460026202FA4BF5E464FF0000B6B
:1003D0005BEA060C08BF4FF0010B19EB0B09ABFBF6
:1003E000027C48EB0608C01B06FB02CC0BFB03CCCF
:1003F00071EB0C01C1E70B46024641464846BDE899
:10040000F08B13B54FF000004FF00001AFF3008008
:10041000BDE81C407047032A40F2308010F0030C06
:1004200000F0158011F8013BBCF1020F624498BF47
:1004300011F801CB00F8013B38BF11F8013BA2F1E4
:10044000040298BF00F801CB38BF00F8013B11F05F
:10045000030300F02580083AC0F0088051F8043BFF
:10046000083A51F804CBA0E80810F5E7121D5CBF6C
:1004700051F8043B40F8043BAFF30080D20724BF9F
:1004800011F8013B11F801CB48BF11F8012B24BF33
:1004900000F8013B00F801CB48BF00F8012B704782
:1004A00010B5203AC0F00B80B1E81850203AA0E80F
:1004B0001850B1E81850A0E81850BFF4F5AF5FEA43
:1004C000027C24BFB1E81850A0E8185044BF18C9F6
:1004D00018C0BDE810405FEA827C24BF51F8043B9D
:1004E00040F8043B08BF7047D20728BF31F8023BF1
:1004F00048BF11F8012B28BF20F8023B48BF00F885
:10050000012B704702F0FF0343EA032242EA024252
:1005100000F02CB84FF0000200B513469446964602
:10052000203922BFA0E80C50A0E80C50B1F1200106
:10053000BFF4F7AF090728BFA0E80C5048BF0CC0B4
:100540005DF804EB890028BF40F8042B08BF704712
:1005500048BF20F8022B11F0804F18BF00F8012B84
:1005600070477047704770474FF000020429C0F091
:10057000128010F0030C3FF4CFAFCCF1040CBCF1AF
:10058000020F18BF00F8012BA8BF20F8022BA1EB27
:100590000C01FFF7C1BF5FEAC17C24BF00F8012B4B
:1005A00000F8012B48BF00F8012B70470048704746
:1005B000644F002070477546FFF7F8FFAE46050010
:1005C0006946534620F00700854618B020B5FFF76E
:1005D00099FEBDE820404FF000064FF000074FF0B5
:1005E00000084FF0000B21F00701AC46ACE8C00951
:1005F000ACE8C009ACE8C009ACE8C0098D4670475A
:1006000010B50446AFF300802046BDE81040FFF768
:1006100004BE000001491820ABBEFEE72600020020
:1006200000BFFEE710B5024800F0C5F910BD00009C
:10063000A400002010B5024800F0BDF910BD000074
:10064000A400002010B5024800F0B5F910BD00006C
:10065000CC00002010B5024800F0ADF910BD00003C
:10066000CC00002010B58AB004460020069001207E
:100670000790002000900190029003900E200990B6
:100680000B492068884202D1002005900490094956
:100690002068884203D10E2005900120049001209B
:1006A00008906946204600F0F5F80AB010BD000039
:1006B000006400400068004010B5024800F0C2FC31
:1006C00010BD00001C03002010B5024800F0BAFC69
:1006D00010BD00009C04002010B5024800F0B2FCE0
:1006E00010BD00005C02002010B5024800F0AAFC1A
:1006F00010BD0000FC04002010B5024800F0A2FC70
:1007000010BD0000BC02002010B5024800F09AFCA9
:1007100010BD0000DC03002010B5024800F092FC80
:1007200010BD00003C04002010B5024800F08AFC17
:1007300010BD00007C03002010B5024800F082FCD0
:1007400010BD00005C05002010B5024800F07AFCE6
:1007500010BD0000BC0500200146087810381823A1
:10076000B0FBF3F20848805CC865032A05D9086825
:100770006FF30900001D886503E008686FF3090046
:100780008865886D70470000F85B0008014600200E
:100790008A6A8B69CBB932B1012A0DD0022A03D003
:1007A000032A10D10EE000BFCB6A03F08073B3F1CF
:1007B000807F00D1012007E0CB6AB3F1C07F00D178
:1007C000012001E000E000BF34E08B69B3F5005F79
:1007D0001AD132B1012A07D0022A03D0032A11D13B
:1007E0000AE000BF01200EE0CB6A03F08073B3F192
:1007F000807F00D1012006E0CB6AB3F1C07F00D139
:10080000012000E000BF15E032B1012A05D0022A24
:1008100004D0032A0CD103E000BF00BF012008E090
:10082000CB6A03F08073B3F1807F00D1012000E038
:1008300000BF00BF704730B50468246824F48024EA
:1008400005682C60046863608468402C04D10468E7
:10085000A2600468E16003E00468A1600468E260EB
:1008600030BD704772B600BFFEE710B5024692F881
:100870002030012B01D0022B06D1106840690843BB
:1008800014686061002010BD506A40F480205062FE
:100890000120F8E7F0B504460A4694F82050012DEF
:1008A00001D0022D7ED1424901F50071086840F067
:1008B00001000860086820F47C5008600868566AE7
:1008C00040EA06200860107D00F01F06012000FAB3
:1008D00006F3C8699843C861A1F50071D069C8B929
:1008E000D1F80C029843C1F80C02908880B2968926
:1008F00040EA064601F51070576940F837601088E5
:1009000080B2168940EA064601F51070576900EB7F
:10091000C7004660D069012819D1D1F80C021843EC
:10092000C1F80C02908880B2168840EA064601F5AC
:100930001070576940F83760908980B2168940EA94
:10094000064601F51070576900EBC70046609069D4
:1009500028B9D1F804029843C1F8040204E0D1F8A0
:1009600004021843C1F80402106928B9D1F814022E
:100970009843C1F8140204E0D1F814021843C1F8F6
:100980001402106A012804D1D1F81C021843C1F8DE
:100990001C02D1F8000220F00100C1F80002002082
:1009A000F0BDFFE7606A40F4802060620120F7E755
:1009B0000064004070472DE9F05F04460025206880
:1009C00046692068D0F80490206887682068D0F8CD
:1009D0000CA02068D0F810B02068D0F8188006F07D
:1009E0000100002855D007F00100C0B101202168A6
:1009F000886007F0020018B1204600F0B2FA0EE05D
:100A000007F0040010B145F4006508E007F00800A5
:100A100010B145F4805502E0204600F0A1FA07F439
:100A20008070C8B14FF480702168886007F400704E
:100A300018B1204600F097FA0EE007F4806010B17C
:100A400045F4005508E007F4006010B145F4804516
:100A500002E0204600F086FA07F48030C8B14FF477
:100A600080302168886007F4003018B1204600F01B
:100A70007CFA0EE007F4802010B145F4004508E050
:100A800007F4002010B145F4803502E0204600F064
:100A90006BFA06F0080038B10AF0100020B145F4F6
:100AA000007510202168C86006F0040040B10AF00B
:100AB000080028B108202168C860204600F01CFA10
:100AC00006F0020038B12068C06800F0030010B1E1
:100AD000204600F012FA06F0400038B10BF010008A
:100AE00020B145F4806510202168086106F02000DF
:100AF00040B10BF0080028B10820216808612046A9
:100B000000F0FCF906F0100038B12068006900F030
:100B1000030010B1204600F0F2F906F4003040B1B5
:100B200009F0100028B1102021684860204600F02C
:100B3000E7F906F4803040B109F0080028B1082038
:100B400021684860204600F011FA06F4004088B39E
:100B500009F0040078B306F4807020B108F00100B9
:100B600008B145F0010506F4007020B108F002005C
:100B700008B145F0020506F4806020B108F00400D9
:100B800008B145F0040506F40060A0B108F070005B
:100B900088B108F07000402817D006DC10280BD070
:100BA00020280CD0302819D10CE0502810D0602813
:100BB00014D110E01DE019E045F008050FE045F004
:100BC00010050CE045F0200509E045F0400506E081
:100BD00045F0800503E045F4807500E000BF00BFEC
:100BE0002068806920F070002168886104202168F5
:100BF00048602DB1606A284360622046FFF7DAFE44
:100C0000BDE8F09F70B504460CB9012070BD94F8A2
:100C1000200010B9204600F0AFF82068006840F0CE
:100C200001002168086000F0E7FC05460DE000F0D7
:100C3000E3FC401B0A2808D9606A40F40030606277
:100C4000052084F820000120E0E72068406800F0DB
:100C500001000028EBD02068006820F00200216825
:100C6000086000F0C9FC05460DE000F0C5FC401B23
:100C70000A2808D9606A40F400306062052084F8D0
:100C800020000120C2E72068406800F00200002830
:100C9000EBD1207E012806D12068006840F080005A
:100CA0002168086005E02068006820F08000216865
:100CB0000860607E012806D12068006840F040008E
:100CC0002168086005E02068006820F04000216885
:100CD0000860A07E012806D12068006840F020004E
:100CE0002168086005E02068006820F02000216885
:100CF0000860E07E012806D12068006820F010001E
:100D00002168086005E02068006840F01000216854
:100D10000860207F012806D12068006840F00800A4
:100D20002168086005E02068006820F0080021685C
:100D30000860607F012806D12068006840F0040048
:100D40002168086005E02068006820F00400216840
:100D50000860D4E902010843216908436169084336
:100D60006168491E08432168C86100206062012053
:100D700084F82000002049E710B586B0044614210D
:100D800001A8FFF7C7FB5749206888424AD1564857
:100D90000068401C544908600846006801280FD1CB
:100DA00000BF002000905148006840F000704F499B
:100DB00008600846006800F00070009000BF00BFA7
:100DC00000BF0020009049481038006840F0020041
:100DD0004649103908600846006800F0020000909B
:100DE00000BF00BF4FF4407001900220029000202D
:100DF0000390032004900920059001A93C4800F0CD
:100E000001FB00220521132000F0B4FC132000F0A8
:100E10009DFC00220521142000F0ACFC142000F001
:100E200095FC5CE033492068884258D100BF00201F
:100E300000902E48006840F080602C490860084609
:100E4000006800F08060009000BF00BF2648006886
:100E5000401C254908600846006801280FD100BFE2
:100E6000002000902148006840F000701F49086091
:100E70000846006800F00070009000BF00BF00BF8F
:100E80000020009019481038006840F0020017490F
:100E9000103908600846006800F00200009000BFAA
:100EA00000BF6020019002200290002003900320E8
:100EB00004900920059001A90D4800F0A3FA002232
:100EC00005213F2000F056FC3F2000F03FFC0022AF
:100ED0000521412000F04EFC412000F037FC06B017
:100EE00010BD0000006400400800002040380240AF
:100EF0000004024000680040704770477047704728
:100F0000704770B5044694F82000012822D10220D1
:100F100084F820002068006820F001002168086043
:100F200000F06AFB05460DE000F066FB401B0A2856
:100F300008D9606A40F400306062052084F820001F
:100F4000012070BD2068406800F001000028EBD14E
:100F50006062F6E7606A40F4002060620120F0E71A
:100F6000704770477047704770477047704770B55B
:100F70000446A56D00F040FB064694F835000228B3
:100F800008D08020606500BF002084F8340000BFD6
:100F9000012070BD2068006820F0160021680860FC
:100FA0002068406920F0800021684861206C08B901
:100FB000A06C28B12068006820F008002168086053
:100FC0002068006820F001002168086010E000F04F
:100FD00013FB801B05280BD920206065032084F8B3
:100FE000350000BF002084F8340000BF0320D0E7A4
:100FF0002068006800F001000028E8D194F85C1037
:101000003F208840A860012084F8350000BF002000
:1010100084F8340000BF00BFBBE7014691F83500FB
:10102000022803D08020486501207047052081F800
:1010300035000868006820F001000A681060002090
:10104000F3E70000F8B50446002000908C480068E3
:101050004FF41651B0FBF1F7A56D2E6894F85C10B3
:1010600008208840304098B12068006800F00400F3
:1010700070B12068006820F004002168086094F8CE
:101080005C1008208840A860606D40F00100606539
:1010900094F85C1001208840304068B120684069B5
:1010A00000F0800040B194F85C1001208840A860F6
:1010B000606D40F00200606594F85C100420884088
:1010C000304068B12068006800F0020040B194F838
:1010D0005C1004208840A860606D40F004006065EA
:1010E00094F85C1010208840304078B32068006885
:1010F00000F0080050B394F85C1010208840A860FD
:101100002068006800F4802080B12068006800F446
:10111000002028B9206CC8B12046216C884715E012
:10112000A06C98B12046A16C88470FE02068006849
:1011300000F4807028B92068006820F00800216859
:101140000860206C10B12046216C884794F85C1030
:10115000202088403040002865D02068006800F0DA
:10116000100000285FD094F85C1020208840A86010
:1011700094F83500052828D12068006820F0160072
:10118000216808602068406920F08000216848617B
:10119000206C08B9A06C28B12068006820F0080015
:1011A0002168086094F85C103F208840A860012006
:1011B00084F8350000BF002084F8340000BF206DA3
:1011C00010B12046216D8847F8BD2068006800F402
:1011D000802080B12068006800F4002028B9606C8D
:1011E00010B12046616C88471DE0E06BD8B1204605
:1011F000E16B884717E02068006800F4807068B9E8
:101200002068006820F0100021680860012084F840
:10121000350000BF002084F8340000BFE06B10B13F
:101220002046E16B8847606D38B3606D00F00100C7
:10123000F0B1052084F835002068006820F0010036
:101240002168086000BF0098401C0090B84200D997
:1012500005E02068006800F001000028F3D100BF1D
:10126000012084F8350000BF002084F8340000BF5E
:10127000E06C10B12046E16C884700BFA4E7000095
:10128000180000202DE9F0410446002500F0B4F9D3
:10129000074614B90120BDE8F081606A00B100BFC3
:1012A000022084F8350000BF002084F8340000BF1D
:1012B0002068006820F00100216808600AE000F062
:1012C0009BF9C01B052805D920206065032084F800
:1012D0003500E0E72068006800F001000028EED14A
:1012E0002068056821480540D4E901010843E16808
:1012F00008432169084361690843A1690843E1691A
:101300000843216A08430543606A042803D1D4E9ED
:101310000B0108430543206805602068456925F0F6
:101320000705606A0543606A04280DD1A06A054379
:10133000E06A48B12046FFF729FA28B140206065ED
:10134000012084F83500A6E7206845612046FFF7B4
:1013500003FA064694F85C103F208840B0600020F5
:101360006065012084F83500002094E73F8010F08C
:101370002DE9F04704460D4616461F464FF000087B
:10138000D4F8589000BF94F83400012802D102200C
:10139000BDE8F087012084F8340000BF94F83500E0
:1013A000012825D1022084F83500002060653B46E5
:1013B000324629462046FFF73EFA94F85C103F205B
:1013C0008840C9F808002068006840F016002168CD
:1013D0000860206C28B12068006840F0080021688F
:1013E00008602068006840F001002168086006E09D
:1013F00000BF002084F8340000BF4FF002084046D0
:10140000C6E70000F8B502460B4600250024002080
:101410000021D6E0012606FA01F51E6806EA050459
:10142000AC4274D11E7906F00306012E04D01E7959
:1014300006F00306022E13D190684F000326BE402B
:10144000B0434F00DE68BE403043906050680126D4
:101450008E40B0431E79C6F300168E403043506074
:101460001E7906F00306032E09D0D0684F0003262C
:10147000BE40B0434F009E68BE403043D0601E79EE
:1014800006F00306022E13D1CF0802F1200656F80B
:1014900027004E07F70E0F26BE40B0434F07FF0E42
:1014A0001E69BE403043CF0802F1200646F82700EF
:1014B00010684F000326BE40B0431E7906F00306B5
:1014C0004F00BE40304310605E6806F44036002E88
:1014D00076D000BF002600963C4E366846F4804623
:1014E0003A4F3E603E46366806F48046009600BF9E
:1014F00000BF374E8F0856F827008E07370F0F268C
:10150000BE40B043334EB24202D1002624E057E041
:10151000314EB24201D101261EE0304EB24201D11D
:10152000022619E02E4EB24201D1032614E02D4EC0
:10153000B24201D104260FE02B4EB24201D1052662
:101540000AE02A4EB24201D1062605E0284EB242F8
:1015500001D1072600E008268F073F0FBE40304329
:101560001B4E8F0846F82700224E3068A0435E6865
:1015700006F4801606B120431E4E3060361D3068DA
:10158000A0435E6806F4001606B12043194E361DCE
:101590003060184E361F3068A0435E6806F400368F
:1015A00006B12043134E361F3060361F3068A0430B
:1015B0005E6806F4803606B120430E4E083E306069
:1015C000491C1029FFF426AFF8BD00004438024042
:1015D00008380140000002400004024000080240B8
:1015E000000C0240001002400014024000180240AB
:1015F000001C0240083C01400148006870470000A0
:101600000C00002003480068034909780844014998
:10161000086070470C0000201400002010B50D4831
:10162000006840F400700B4908600846006840F408
:10163000806008600846006840F4807008600320FD
:1016400000F0D6F80F2000F007F800F055F8002061
:1016500010BD0000003C0240F0B587B004460026F3
:10166000002700BF002000901E48006840F00100E5
:101670001C4908600846006800F00100009000BFA7
:1016800000BF01A902A800F089F900F0BFF94600E7
:101690001548B6FBF0F0471E14481549086040F2A3
:1016A000E7311348C16047600021016181608161B9
:1016B00000F064FC054695B90D4800F093FC054622
:1016C0006DB9192000F042F8102C07D200222146F3
:1016D000192000F04FF80748046000E00125284673
:1016E00007B0F0BD4438024040420F000000014006
:1016F000480600201000002008B500BF0020009020
:101700001148006840F480400F49086008460068AE
:1017100000F48040009000BF00BF00BF0020009098
:10172000081F006840F08050091F086008460068E4
:1017300000F08050009000BF00BF00220F21901EDB
:1017400000F018F808BD0000443802400146084681
:1017500000280DDB00BF00BF00F01F0301229A40EC
:1017600043099B0003F1E023C3F8002100BF00BF41
:1017700000BF70472DE9F05F80460D4616460027F2
:1017800002F074F8074639462A46334601F007004E
:10179000C0F1070ABAF1040F02D94FF0040A01E0C0
:1017A000C0F1070AD14600F1040ABAF1070F02D2CC
:1017B0004FF0000A01E0A0F1030AD4464FF0010AFD
:1017C0000AFA09FAAAF1010A0AEA020A0AFA0CFA62
:1017D0004FF0010B0BFA0CFBABF1010B0BEA030B07
:1017E0004AEA0B042146404602F048F8BDE8F09F63
:1017F00000BF00F00702064B19684FF6FF031940BF
:10180000044B0B4343EA0221014B196000BF7047B0
:101810000CED00E00000FA0570B504460D460CB969
:10182000012070BD5848006800F00700A84209D2A6
:1018300055490D700846006800F00700A84201D025
:101840000120EEE7207800F0020002281DD1207868
:1018500000F00400042805D14C48006840F4E05032
:101860004A490860207800F00800082805D1474858
:10187000006840F46040454908604448006820F032
:10188000F000A168084341490860207800F0010099
:10189000A8B36068012807D13C4808380068C0F345
:1018A0004040B8B90120BCE76068022802D06068F7
:1018B000032807D1354808380068C0F3406048B9AC
:1018C0000120AEE7314808380068C0F3400008B98D
:1018D0000120A6E72D48006820F003006168084356
:1018E0002A490860FFF788FE064609E0FFF784FEF4
:1018F000801B41F28831884202D9032091E707E03A
:101900002248006800F00C006168B0EB810FEDD157
:101910001D48006800F00700A84209D91A490D7057
:101920000846006800F00700A84201D0012078E7CF
:10193000207800F00400042807D11448006820F43F
:10194000E050E168084311490860207800F0080081
:10195000082808D10D48006820F46040216940EA59
:10196000C1000A49086000F061F808490968C1F33C
:101970000311074A515CC8400649086006480068E0
:10198000FFF76AFE00204CE7003C024008380240A6
:10199000005C000818000020100000200F220260E8
:1019A0000D4A126802F0030242600B4A126802F00C
:1019B000F0028260084A126802F4E052C260064AED
:1019C000126802F46042D2080261044A126802F00E
:1019D00007020A607047000008380240003C0240DD
:1019E00001480068704700001800002000B5FFF7AC
:1019F000F7FF04490968C1F38221034A515CC840DA
:101A000000BD000008380240105C000800B5FFF778
:101A1000E7FF04490968C1F34231034A515CC840F9
:101A200000BD000008380240105C00082DE9F047B6
:101A3000002400250026A1462548006800F00C007F
:101A400020B1042805D008283AD105E0DFF88490B9
:101A500039E0DFF8849036E01D48001F006800F090
:101A60003F041B48001F006800F4800078B11A484A
:101A70001749091F0968C1F38811A0FB01700146CD
:101A8000224600233846FEF74FFC05460EE011487B
:101A90000F49091F0968C1F38811A0FB01700146B5
:101AA000224600233846FEF73FFC05460848001F43
:101AB0000068C0F30140401C4600B5FBF6F902E0A7
:101AC000DFF8109000BF00BF4846BDE8F087000077
:101AD000083802400024F40040787D01F8B504463F
:101AE0000CB90120F8BD207800F00100002874D066
:101AF000F948006800F00C0004280DD0F648006892
:101B000000F00C00082813D1F348001F006800F40F
:101B10008000B0F5800F0BD1EF4808380068C0F3A3
:101B20004040002859D06068002856D10120D9E7EC
:101B300000BF6068B0F5803F08D1E748083800680A
:101B400040F48030E449083908601EE06068B0F570
:101B5000A02F0DD1E0480838006840F48020DE490D
:101B6000083908600846006840F4803008600CE0DE
:101B7000D9480838006820F48030D749083908600F
:101B80000846006820F48020086000BF606890B1BB
:101B9000FFF732FD054606E0FFF72EFD401B6428E7
:101BA00001D903209EE7CC4808380068C0F34040C4
:101BB0000028F1D011E0FFF71FFD054606E0FFF712
:101BC0001BFD401B642801D903208BE7C24808385D
:101BD0000068C0F340400028F1D1207800F00200F6
:101BE00002285FD1BC48006800F00C0058B1BA4828
:101BF000006800F00C0008281CD1B748001F0068DE
:101C000000F48000B0B9B44808380068C0F3400060
:101C100020B1E068012801D0012063E7AE48083810
:101C2000006820F0F800216940EAC100AA4908399B
:101C3000086037E0E06800B30120A8490860FFF7BA
:101C4000DBFC054606E0FFF7D7FC401B022801D964
:101C5000032047E7A04808380068C0F34000002888
:101C6000F1D09D480838006820F0F800216940EA6A
:101C7000C10099490839086014E0002097490860BC
:101C8000FFF7BAFC054606E0FFF7B6FC401B02284A
:101C900001D9032026E7904808380068C0F34000C7
:101CA0000028F1D1207800F0080008282CD16069C4
:101CB000A8B101208A490860FFF79EFC054606E0AE
:101CC000FFF79AFC401B022801D903200AE782484B
:101CD0006C300068C0F340000028F1D014E0002010
:101CE0007F490860FFF788FC054606E0FFF784FCA3
:101CF000401B022801D90320F4E677486C300068C5
:101D0000C0F340000028F1D1207800F0040004283E
:101D100070D1002770483830006800F0805090B9CA
:101D200000BF002000906C483830006840F08050C0
:101D30006949383108600846006800F0805000901A
:101D400000BF00BF01276748006800F48070B0B989
:101D50006448006840F4807062490860FFF74CFCFA
:101D6000054606E0FFF748FC401B022801D9032086
:101D7000B8E65C48006800F480700028F2D000BF2C
:101D8000A068012808D154486830006840F001007C
:101D90005149683108601DE0A06805280DD14E4802
:101DA0006830006840F004004B496831086008461C
:101DB000006840F0010008600CE0474868300068A7
:101DC00020F001004449683108600846006820F0AE
:101DD0000400086000BFA068A8B1FFF70DFC05462D
:101DE00009E0FFF709FC401B41F28831884202D923
:101DF000032077E626E0384868300068C0F34000EA
:101E00000028EED013E0FFF7F7FB054608E0FFF7E8
:101E1000F3FB401B41F28831884201D9032061E67F
:101E20002D4868300068C0F340000028EFD1012F32
:101E300007D129483830006820F0805026493831D1
:101E4000086000BFA069002845D02348006800F062
:101E50000C0008285DD0A069022845D100201F4948
:101E60000866FFF7C9FB054606E0FFF7C5FB401B08
:101E7000022801D9032035E6174808380068C0F366
:101E800040600028F1D1D4E907010843616A40EAC3
:101E900081110122A06AC2EB500041EA00412C20CE
:101EA000005D41EA00600C49091F086001200B49F0
:101EB0000866FFF7A1FB054606E0FFF79DFB401B08
:101EC000022801D903200DE6034808380068C0F352
:101ED00040600028F1D049E0083802400000474245
:101EE000800E474200700040002021490866FFF73D
:101EF00083FB054606E0FFF77FFB401B022801D964
:101F00000320EFE51B480068C0F340600028F2D1D1
:101F10002CE0A069012800D1E4E51648001D066800
:101F2000A069012820D006F48001E06981421BD11C
:101F300006F03F01206A814216D147F6C07030405A
:101F4000616AB0EB811F0FD106F440310122A06A13
:101F5000C2EB5000B1EB004F06D106F070612C20AF
:101F6000005DB1EB006F01D00120BBE50020B9E5B9
:101F700000004742003802407047704710B50446E1
:101F80000CB9012010BD94F83D0028B9002084F858
:101F90003C00204600F025F8022084F83D00211D79
:101FA000206801F057F8012084F8460000BF84F84B
:101FB0003E0001213F20015540200155412001559F
:101FC00000BF00BF012084F8420043200155442097
:101FD00001554520015500BF012084F83D00002037
:101FE000D0E77047014691F83D00012801D001205B
:101FF0007047022081F83D000868C06840F0010089
:102000000B68D8601A4B086898421BD00868B0F17A
:10201000804F17D0174B0868984213D0164B0868AA
:1020200098420FD0154B086898420BD0144B0868A3
:10203000984207D0134B0868984203D0124B0868A7
:1020400098420CD10868806800F00702062A0CD07C
:102050000868006840F001000B68186005E0086837
:10206000006840F001000B6818600020C0E7000025
:10207000000001400004004000080040000C004047
:10208000000401400040014000180040704770B556
:1020900004462068C5682068066906F00200022828
:1020A00019D105F00200022815D1401F21680861EE
:1020B000012020772068806900F0030018B12046D5
:1020C000FFF7E4FF05E0204600F097F8204600F017
:1020D00095F80020207706F00400042819D105F0B7
:1020E0000400042815D1C04321680861022020772C
:1020F0002068806900F4407018B12046FFF7C6FFE1
:1021000005E0204600F079F8204600F077F800203E
:10211000207706F00800082819D105F008000828E3
:1021200015D1C04321680861042020772068C06968
:1021300000F0030018B12046FFF7A8FF05E0204695
:1021400000F05BF8204600F059F80020207706F0F8
:102150001000102819D105F01000102815D1C04327
:1021600021680861082020772068C06900F4407069
:1021700018B12046FFF78AFF05E0204600F03DF841
:10218000204600F03BF80020207706F0010048B11F
:1021900005F0010030B16FF00100216808612046B0
:1021A00000F02EF806F08000802809D105F08000AC
:1021B000802805D1C043216808612046FFF7DCFE76
:1021C00006F04000402809D105F04000402805D124
:1021D000C04321680861204600F01EF806F0200088
:1021E000202809D105F02000202805D1C04321680E
:1021F00008612046FFF7C1FE70BD704770470000C0
:1022000010B5044603492068884201D1FFF7FAF966
:1022100010BD0000000001407047704770B50446D3
:10222000002520684069C0F3C01594F841002128BA
:1022300017D1B5B100BF00BF2168143151E8001FAC
:1022400021F080002168143141E80002002AF3D116
:1022500000BFA06B10B1A06BFEF789FE204601F015
:10226000A8F820684069C0F3801594F8420022283D
:1022700017D1B5B100BF00BF2168143151E8001F6C
:1022800021F040002168143141E80002002AF3D116
:1022900000BFE06B10B1E06BFEF769FE204601F075
:1022A00042F8002070BD70472DE9F84F04462068C1
:1022B00005682068C668206847694FF00009CA466B
:1022C00005F00F09B9F1000F0AD105F0200038B16F
:1022D00006F0200020B1204601F07EF8BDE8F88F1E
:1022E000B9F1000F7CD007F0010018B906F4907026
:1022F000002875D005F0010030B106F4807018B1E7
:10230000606C40F00100606405F0040030B107F03B
:10231000010018B1606C40F00200606405F002003A
:1023200030B107F0010018B1606C40F00400606447
:1023300005F0080048B106F0200010B907F00100D0
:1023400018B1606C40F008006064606C002846D0F2
:1023500005F0200028B106F0200010B1204601F061
:102360003BF820684069C0F3801A606C00F00800F8
:1023700010B9BAF1000F2DD0204600F0D4FF20682C
:10238000406900F04000402820D100BF00BF216814
:10239000143151E8001F21F040002168143141E858
:1023A0000002002AF3D100BFE06B50B17F48E16B1F
:1023B0000865E06BFEF731FE88B1E06B016D884780
:1023C0000DE02046FFF76FFF09E009E02046FFF728
:1023D0006AFF04E02046FFF766FF002060647DE7A7
:1023E000206B012878D105F01000002874D006F089
:1023F00010000028FAD000BF00200090206800687C
:10240000009020684068009000BF00BF20684069CD
:1024100000F04000402870D1E06B006840681FFA6F
:1024200080F8B8F1000F58D0A08D404555DDA4F8D4
:102430002E80E06BC069B0F5807F43D000BF00BF45
:1024400021680C3151E8001F21F4807021680C31A3
:1024500041E80002002AF3D100BF00BF00BF21689D
:10246000143151E8001F21F001002168143141E8C6
:102470000002002AF3D100BF00BF00BF2168143161
:1024800051E8001F21F040002168143141E80002AA
:10249000002AF3D100BF202084F8420000202063EE
:1024A00000BF00BF21680C3151E8001F21F010006F
:1024B00021680C3141E80002002AF3D100BFE06B33
:1024C000FEF755FD02206063A08DE28D801A81B277
:1024D0002046FFF7A2FE0EE052E0A08D40450AD153
:1024E000E06BC069B0F5807F05D102206063A18DEB
:1024F0002046FFF792FEF1E6FFE7A08DE18D401A3E
:102500001FFA80F8E08DD0B3B8F1000F37D000BFCC
:1025100000BF21680C3151E8001F21F49070216840
:102520000C3141E80002002AF3D100BF00BF00BF18
:102530002168143151E8001F21F001002168143195
:1025400041E80002002AF3D100BF202084F84200B5
:102550000020206300BF00BF21680C3151E8001F3C
:1025600021F0100021680C3141E80002002AF3D16B
:1025700000BF0220606341462046FFF74EFEADE6F5
:1025800005F0800030B106F0800018B1204601F05F
:1025900023F9A3E605F0400030B106F0400018B181
:1025A000204600F0F6FE99E600BF97E6ED31000800
:1025B00010B504460CB9012010BDA06900B100E0BF
:1025C00000BF94F8410028B9002084F8400020465C
:1025D00000F02AF8242084F841002068C06820F424
:1025E00000502168C860204600F074FF2068006930
:1025F00020F49040216808612068406920F02A009A
:10260000216848612068C06840F400502168C860B3
:1026100000206064202084F8410084F842000020FB
:10262000606300BFC8E7000010B586B004461421FF
:1026300001A8FDF76FFFFE492068884275D100BFF1
:1026400000200090FB48006840F40020F949086031
:102650000846006800F40020009000BF00BF00BFE3
:1026600000200090F3481038006840F00400F14961
:10267000103908600846006800F00400009000BFB0
:1026800000BF4FF4406001900220029000200390B0
:10269000032004900820059001A9E748FEF7B2FE48
:1026A000E648E7490860400548600021E448816049
:1026B000C1604FF480610161002141618161C161AC
:1026C00001624162FEF7DEFD08B1FEF7CBF800BF04
:1026D000DB48E063846300BFD8483030D9490860E4
:1026E0004FF0006048604021D64881600021C16001
:1026F0004FF480610161002141618161C16101622A
:102700004162FEF7BFFD08B1FEF7ACF800BFCD484F
:10271000A063846300BF002205213420FFF72AF85C
:102720003420FFF713F82AE2FFE7C7492068884200
:102730007ED100BF00200090BE48006840F48010A9
:10274000BC4908600846006800F48010009000BF93
:1027500000BF00BF00200090B6481038006840F06D
:102760000400B449103908600846006800F004000D
:10277000009000BF00BF00BF002000900846006826
:1027800040F0080008600846006800F0080000906B
:1027900000BF00BF88140190022002900020039027
:1027A000032004900820059001A9A348FEF72AFE03
:1027B0000420019002200290002003900320049046
:1027C0000820059001A9A148FEF71CFE9B4830385F
:1027D0009F490860C005486000219D488160C16034
:1027E0004FF480610161002141618161C161016239
:1027F0004162FEF747FD08B1FEF734F800BF944888
:10280000E063846300BF8D487830924908604FF0E0
:102810000060486040218F4881600021C1604FF412
:1028200080610161002141618161C161016200E05B
:1028300013E04162FEF726FD08B1FEF713F800BF72
:102840008448A063846300BF002205213520FEF781
:1028500091FF3520FEF77AFF91E17F492068884299
:1028600076D100BF002000907248006840F400302C
:10287000704908600846006800F40030009000BF0E
:1028800000BF00BF002000906A481038006840F088
:1028900008006849103908600846006800F0080020
:1028A000009000BF00BF6020019002200290002035
:1028B0000390032004900720059001A96348FEF7C8
:1028C000A1FD5E484830654908604FF000604860EF
:1028D000002162488160C1604FF480610161002184
:1028E00041618161C16101624162FEF7CBFC08B1C7
:1028F000FDF7B8FF00BF5948E063846300BF4F484D
:102900006030574908604FF00060486040215448EB
:1029100081600021C1604FF480610161002141614B
:102920008161C16101624162FEF7ACFC08B1FDF753
:1029300099FF00BF4A48A063846300BF00220521BD
:102940002620FEF717FF2620FEF700FF17E1FFE71E
:1029500044492068884269D100BF00200090354872
:10296000006840F48020334908600846006800F49D
:102970008020009000BF00BF00BF002000902D48C5
:102980001038006840F002002A49103908600846F3
:10299000006800F00200009000BF00BF4FF44060EC
:1029A0000190022002900020039003200490072051
:1029B000059001A92C48FEF725FD204818382B4921
:1029C00008604FF000604860002128488160C160C5
:1029D0004FF480610161002141618161C161016247
:1029E0004162FEF74FFC08B1FDF73CFF00BF1F48F6
:1029F000E063846300BF114818301D4908604FF040
:102A00000060486040211A4881600021C1604FF495
:102A100080610161002141618161C16101624162A6
:102A2000FEF730FC08B1FDF71DFF23E030E00000A9
:102A3000004C004040380240000802404060024024
:102A40005C020020BC02002000500040000C02404C
:102A50001C0300207C03002000440040DC03002015
:102A60003C04002000480040000402409C04002078
:102A7000FC04002000BF4348A063846300BF002221
:102A800005212720FEF776FE2720FEF75FFE76E081
:102A90003D492068884272D100BF002000903B4829
:102AA000006840F02000394908600846006800F0DE
:102AB0002000009000BF00BF00BF002000903348FE
:102AC0001438006840F004003049143908600846A2
:102AD000006800F00400009000BF00BFC02001901B
:102AE000022002900020039003200490082005900B
:102AF00001A92748FEF786FC26482749086080057B
:102B00004860002124488160C1604FF48061016108
:102B1000002141618161C16101624162FEF7B2FB46
:102B200008B1FDF79FFE00BF1B48E063846300BF50
:102B300018487830194908604FF0206048604021FB
:102B4000164881600021C1604FF48061016100215D
:102B500041618161C16101624162FEF793FB08B18D
:102B6000FDF780FE00BF0D48A063846300BF002214
:102B700005214720FEF7FEFD4720FEF7E7FD06B0E2
:102B800010BD0000FC040020001401404438024045
:102B900000080240286402405C050020BC050020BB
:102BA00070B504460D46164694F8420020280BD115
:102BB00005B10EB9012070BD0020206332462946C0
:102BC000204600F09DFDF6E70220F4E770477047CD
:102BD000704700BFFEE708B502F0B0FD009000BFEF
:102BE0000221684601F0CEFEFAE7000010B50E485B
:102BF0000E4908600320486000210C488160C160D4
:102C00004FF4A02101614FF4C00141610021017620
:102C100041768176C17601774177FDF7F3FF08B100
:102C2000FDF720FE10BD000000640040A40000205D
:102C300010B50E480E4908600320486000210C487A
:102C40008160C1604FF4A02101614FF4C001416176
:102C50000021017641768176C17601774177FDF7D3
:102C6000D1FF08B1FDF7FEFD10BD00000068004077
:102C7000CC00002008B500BF002000903648006856
:102C800040F40010344908600846006800F4001061
:102C9000009000BF00BF00BF002000900846006801
:102CA00040F4800008600846006800F4800000904E
:102CB00000BF00BF002205210B20FEF75BFD0B20AB
:102CC000FEF744FD002205210C20FEF753FD0C20E9
:102CD000FEF73CFD002205210D20FEF74BFD0D20E7
:102CE000FEF734FD002205210E20FEF743FD0E20E5
:102CF000FEF72CFD002205210F20FEF73BFD0F20E3
:102D0000FEF724FD002205211020FEF733FD1020E0
:102D1000FEF71CFD002205211120FEF72BFD1120DE
:102D2000FEF714FD002205212F20FEF723FD2F20A2
:102D3000FEF70CFD002205213920FEF71BFD39208E
:102D4000FEF704FD002205214520FEF713FD452076
:102D5000FEF7FCFC08BD00003038024010B503222D
:102D60000021012002F0A4F804490860044A00216F
:102D7000044800F027FE0449086010BD0000002050
:102D8000D45B00084D2F00080400002008B500BFE8
:102D9000002000902448006840F08000224908602C
:102DA0000846006800F08000009000BF00BF00BF30
:102DB000002000900846006840F0020008600846C5
:102DC000006800F00200009000BF00BF00BF0020BC
:102DD00000900846006840F004000860084600685B
:102DE00000F00400009000BF00BF00BF0020009072
:102DF0000846006840F0010008600846006800F0DE
:102E00000100009000BF00BF00BF002000900846F6
:102E1000006840F0080008600846006800F00800FC
:102E2000009000BF00BF08BD3038024010B50B480D
:102E30000B4908604FF4E130486000210848816088
:102E4000C16001610C21416100218161C161FFF715
:102E5000AFFB08B1FDF706FD10BD0000004C0040BF
:102E6000F400002010B50B480B4908604FF4E13026
:102E70004860002108488160C16001610C21416106
:102E800000218161C161FFF793FB08B1FDF7EAFC06
:102E900010BD0000005000403C01002010B50B4860
:102EA0000B4908604FF4E130486000210848816018
:102EB000C16001610C21416100218161C161FFF7A5
:102EC00077FB08B1FDF7CEFC10BD000000440040C8
:102ED0008401002010B50B480B4908604FF4E13025
:102EE0004860002108488160C16001610C21416196
:102EF00000218161C161FFF75BFB08B1FDF7B2FC06
:102F000010BD000000480040CC01002010B50B4867
:102F10000B4908604FF4E1304860002108488160A7
:102F2000C16001610C21416100218161C161FFF734
:102F30003FFB08B1FDF796FC10BD000000140140F6
:102F40001402002000BFFEE700BFFEE700F0F2F829
:102F5000002001F081FD00BF012000F0DDFCFBE757
:102F600010B54FF0E020006902F0D8FB012801D035
:102F700001F084FF10BD000000B593B0302107A818
:102F8000FDF7C8FA142102A8FDF7C4FA00BF00201B
:102F900001902548006840F08050234908600846A9
:102FA000006800F08050019000BF00BF00BF00200B
:102FB00001901E48006840F480401C4908600846A3
:102FC000006800F48040019000BF00BF022007901D
:102FD00001200A9010200B9002200D9000210E91EC
:102FE00008210F91A8211091022111910421129121
:102FF00007A8FEF773FD08B1FDF734FC0F2002901F
:1030000002200390002004904FF4A05005904FF44C
:1030100080500690052102A8FEF7FEFB08B1FDF7DF
:1030200021FC13B000BD0000403802400070004099
:103030000348006840F470000149086070470000D0
:1030400088ED00E010B50248FFF721F810BD000040
:103050004806002010B502682B4B98420ED0B0F104
:10306000804F0BD0294B984208D0294B984205D06D
:10307000284B984202D0284B984203D122F070028C
:103080004B681A43204B984220D0B0F1804F1DD09E
:103090001E4B98421AD01E4B984217D01D4B984297
:1030A00014D01D4B984211D01C4B98420ED01C4B93
:1030B00098420BD01B4B984208D01B4B984205D02E
:1030C0001A4B984202D01A4B984203D122F4407214
:1030D000CB681A4322F080034C6943EA04028B68F0
:1030E000C3620B688362084B984202D00A4B984235
:1030F00001D10B690363036843F0040303600123F8
:103100004361026010BD0000000001400004004067
:1031100000080040000C0040000401400040014055
:10312000004401400048014000180040001C0040DD
:10313000002000401CB50648042100234FF4C8724B
:10314000CDE9001003A1064802F058FA1CBD0000AA
:10315000A00000204869745F5461736B0000000098
:10316000D72B000808B519480068006800F0100067
:10317000102827D115480068C06800F0100008B377
:103180001248FFF74BF812480078AA2815D11048CA
:10319000C07ABB2811D10020009069460D48006814
:1031A00002F0C2F8009838B14FF080500A49086028
:1031B000BFF34F8FBFF36F8F00BF1E220449034838
:1031C000FFF7EEFC0148FFF76FF808BDF4000020A0
:1031D0001C0600200000002004ED00E010B50248AD
:1031E000FFF762F810BD00003C01002070B50446F6
:1031F000A56B0020E8852846FFF755F870BD70B52F
:1032000006460025B46B20684069C0F3C01594F8E9
:103210004100212805D125B10020E084204600F09E
:10322000C8F820684069C0F3801594F8420022284D
:1032300005D125B10020E085204600F074F8606CCF
:1032400040F0100060642046FFF72DF870BD70B5A7
:103250000546AC6B2868006800F48070002842D1F5
:10326000E08500BF00BF21680C3151E8001F21F448
:10327000807021680C3141E80002002AF3D100BFC0
:1032800000BF00BF2168143151E8001F21F0010088
:103290002168143141E80002002AF3D100BF00BFC9
:1032A00000BF2168143151E8001F21F0400021685F
:1032B000143141E80002002AF3D100BF202084F835
:1032C0004200206B01280ED100BF00BF21680C31E5
:1032D00051E8001F21F0100021680C3141E8000284
:1032E000002AF3D100BF00206063206B012804D1C5
:1032F000A18D2046FEF791FF02E02046FFF766FC15
:1033000070BD70B50546AC6B01206063206B012871
:1033100005D1A08D41082046FEF77FFF02E0204640
:10332000FFF755FC70BD00BF00BF02680C3252E8C9
:10333000002F22F4907102680C3242E80013002B37
:10334000F3D100BF00BF00BF0268143252E8002F63
:1033500022F001010268143242E80013002BF3D17D
:1033600000BF016B01290ED100BF00BF02680C3203
:1033700052E8002F22F0100102680C3242E80013DC
:10338000002BF3D100BF202180F8421000210163FF
:10339000704710B504462068C06820F040002168DE
:1033A000C860202084F841002046FFF711FC00206F
:1033B00010BD00BF00BF02680C3252E8002F22F09F
:1033C000C00102680C3242E80013002BF3D100BFA9
:1033D000202180F841107047F8B5044600250026EA
:1033E00094F84200222873D1A068B0F5805F0BD119
:1033F000206948B9A66A20684068C0F30800308098
:10340000A06A801CA06214E0A56AA068B0F5805F85
:1034100003D0A06828B9206918B9206840682870CE
:1034200004E02068406800F07F002870A06A401C1B
:10343000A062E08D401E80B2E085002846D1206861
:10344000C06820F020002168C8602068C06820F4AF
:1034500080702168C8602068406920F00100216800
:103460004861202084F8420000206063206B01281E
:1034700026D10020206300BF00BF21680C3151E835
:10348000001F21F0100021680C3141E80002002AE1
:10349000F3D100BF2068006800F0100010280AD1A6
:1034A00000BF0020009020680068009020684068FD
:1034B000009000BF00BFA18D2046FEF7AEFE02E0E7
:1034C0002046FFF783FB0020F8BD01E00020FBE76A
:1034D0000220F9E72DE9F84F04462068006920F43E
:1034E0004050E1680843216808612169A0680843E9
:1034F00061690843E169084300902068C06849F2A7
:103500000C618843009908432168C86020684069BD
:1035100020F44070A1690843216848617649206819
:10352000884203D075492068884203D1FEF76EFABD
:10353000814602E0FEF75AFA8146E069B0F5004F95
:103540006CD102206168A0FB015003461920A9FB41
:10355000007001462A463846FCF7E6FE6421B0FBBF
:10356000F1F04FEA001A02206168A0FB01510B46FE
:103570001920A9FB00712A463846FCF7D5FE834680
:1035800002206168A0FB015003461920A9FB0071CD
:103590002A463846FCF7C8FE6421B0FBF1F000EB88
:1035A000C00101EB0010ABEB8000322101EBC00049
:1035B0006421B0FBF1F000F0F8000AEB400A0220B1
:1035C0006168A0FB015003461920A9FB0070014669
:1035D0002A463846FCF7A8FE834602206168A0FB15
:1035E000015003461920A9FB00712A463846FCF712
:1035F0009BFE6421B0FBF1F000EBC00101EB001079
:10360000ABEB8000322101EBC0006421B0FBF1F094
:1036100000F007005044216888606AE00420616877
:10362000A0FB015003461920A9FB007001462A4661
:103630003846FCF779FE824604206168A0FB015001
:1036400003461920A9FB007001462A463846FCF7BC
:103650006BFE6421B0FBF1F000EBC00101EB001048
:10366000AAEB8000322101EB00106421B0FBF1F0E5
:1036700000F0F00A04206168A0FB017003461920E5
:10368000A9FB00513A462846FCF74EFE6421B0FBE8
:10369000F1F00AEB001A04206168A0FB01510B460F
:1036A0001920A9FB00712A463846FCF73DFE8346E7
:1036B00004206168A0FB015003461920A9FB00709B
:1036C00001462A463846FCF72FFE6421B0FBF1F094
:1036D00000EBC00101EB0010ABEB8000322101EBED
:1036E00000106421B0FBF1F000F00F00504421689D
:1036F0008860BDE8F88F0000001001400014014010
:1037000077B581B0044615460298A062A5850020D1
:103710006064222084F842002C48E16BC8632C4886
:10372000E16B08642B48E16BC8640020E16B08651D
:1037300002AE32682368191D2B46E06BFDF718FEB8
:1037400038B110206064202084F84200012004B0C9
:1037500070BD00BF002000902068006800902068C5
:103760004068009000BF00BF206970B100BF00BF7B
:1037700021680C3151E8001F41F4807021680C3140
:1037800041E80002002AF3D100BF00BF00BF21685A
:10379000143151E8001F41F001002168143141E863
:1037A0000002002AF3D100BF00BF00BF216814311E
:1037B00051E8001F41F040002168143141E8000247
:1037C000002AF3D100BF0020C1E700004F320008FB
:1037D00003330008FF310008014691F84100212819
:1037E00028D18868B0F5805F0BD1086948B90A6AAA
:1037F0001088C0F308000B685860086A801C0862D3
:1038000005E00B6A581C086218780B685860C88C71
:10381000401E80B2C88458B90868C06820F0800093
:103820000B68D8600868C06840F040000B68D8603A
:10383000002070470220FCE710B50248FEF734FD77
:1038400010BD00008401002010B50248FEF72CFDD9
:1038500010BD0000CC01002010B50248FEF724FD89
:1038600010BD00001402002000BFFEE702480068FF
:10387000C0F30220704700000CED00E010B50028F6
:1038800004DB0A07130E054A135406E00A07140E58
:10389000034A00F00F031B1FD45410BD00E400E0E6
:1038A00018ED00E0EFF3058070470000FDF7B6FE6D
:1038B000FFF762FBFFF76AFAFFF7DCF9FFF796F90B
:1038C000FFF7B6F9FFF7EAFAFFF720FBFFF7AEFACA
:1038D000FFF7C8FAFFF7FEFA0D48FCF7C3FE0C48E5
:1038E000FDF70FFB10210A48FCF7BFFF0948FCF762
:1038F000B9FE0848FDF705FB02210648FCF7B5FFB5
:1039000000F01AF8FFF72AFA00F02CF800BFFEE7E3
:10391000CC000020A400002070B50546FFF7C2FFD0
:1039200010B16FF0050404E0002415B1284600F042
:10393000FBFF204670BD000010B5FFF7B3FF10B1CC
:103940006FF0050409E00648006820B90120044929
:103950000860002401E04FF0FF34204610BD000055
:103960006C00002070B5FFF79DFF10B16FF00504EB
:103970001FE011480068012819D100BF801F0021F5
:10398000002804DB0A07130E0C4A135406E00A074A
:10399000150E0B4A00F00F031B1FD55400BF00BFCC
:1039A00002200549086001F009F9002401E04FF008
:1039B000FF34204670BD00006C00002000E400E0F1
:1039C00018ED00E02DE9FF478046894614460020A7
:1039D0000390FFF767FF00284ED1B8F1000F4BD0DE
:1039E000802618258246471E44B3206808B1D4F8C3
:1039F00000A0A06900B1A5692DB1382D03D82079A8
:103A000000F0010018B1002004B0BDE8F087606943
:103A100008B160698608A06840B1E0685C2805D3F9
:103A2000206918B1606908B1012708E0A06830B9C1
:103A3000E06820B9206910B9002700E00027012FB5
:103A40000CD12169A0684B463246CDE90051029065
:103A50005146404601F004FE03900DE067B903A80B
:103A6000B2B24B465146CDE90050404601F0C6FD8A
:103A7000012801D0002003900398C5E72DE9F0410B
:103A800005460E461648076816480068001D00F0F7
:103A9000C3FD681C38B936B112480168091D1248C7
:103AA00000F010FE1AE07C190E4800684460BC4229
:103AB00007D20C480168091D0C48006800F0E8FDB9
:103AC0000CE008480168091D0948006800F0E0FDA5
:103AD00008480068844201D206480460BDE8F081CD
:103AE000300000201C000020800B0020240000205B
:103AF000200000204C00002010B5044600F0EEFD30
:103B000024480068401C234908602348006840B9E5
:103B1000214804600846006801280DD100F0FCF936
:103B20000AE01E48006838B91B480068C06AE16AAC
:103B3000884201D81848046019480068401C184998
:103B400008600846006860641649E06A09688842AF
:103B500002D91449E06A0860E16A01EB8101124A66
:103B600002EB8100211D00F0ADFD00F0E1FD0B48EE
:103B7000006868B108480068C06AE16A884207D2F4
:103B80004FF0805009490860BFF34F8FBFF36F8F2C
:103B900010BD00002C0000201C0000203800002078
:103BA0004800002034000020D006002004ED00E092
:103BB00008B500F093FD12480068E8B9114800F01C
:103BC00057FD114800F054FD0E48104908600E489A
:103BD0000F49086000200F4B0F4A102100900A2067
:103BE00001F093F9064908600846006820B10BA16E
:103BF0000348006800F05CFE00F09AFD08BD00007C
:103C000060000020940B0020A80B0020580000202A
:103C10005C000020BC0B00200C0C0020546D725185
:103C20000000000010B516E000F058FD0C48C06818
:103C3000C468201D00F0F0FC0A480068401E0949D5
:103C4000086009480068401E0749086000F070FDE0
:103C5000204600F05FF8044800680028E4D110BD59
:103C60006C0B00202C0000202800002070B50446BA
:103C70000D46206C70B1216CE0680144E160D4E92C
:103C80000210884201D32168E1602846226CE16875
:103C9000FCF7C1FB70BD2DE9F04104460F46154607
:103CA0004FF00008A66B206C48B9206800282CD182
:103CB000A06801F0EBFD80460020A06025E07DB902
:103CC0003946226C6068FCF7A6FB216C60680844EA
:103CD0006060D4E90101884217D32068606014E075
:103CE0003946226CE068FCF796FB216CE068411ACB
:103CF000E1602168E068884203D2216CA068411A23
:103D0000E160022D01D106B1761E701CA063404611
:103D1000BDE8F08110B5044694F8590030B9206B25
:103D200000F024FD204600F021FD1AE094F859002F
:103D3000012803D1204600F019FD12E094F8590043
:103D4000022801D1012000E0002050B900BF50201E
:103D500080F31188BFF34F8FBFF36F8F00BF00BF99
:103D6000FEE710BD0146084A126812680AB901222E
:103D700000E000220A600A6822B9034A1268D26889
:103D8000106800E0002070475800002030B54FF464
:103D90007053174800F007042CB1C01D20F0070035
:103DA000134C041B1B1B0246124C22600024114DB5
:103DB0006C60D018083820F007000F4C20600024F9
:103DC0000D4D2D686C600C4D2D682C601146441A09
:103DD0004C60094C24680C60084D4C682C60084D00
:103DE0004C682C604FF00044064D2C6030BD000044
:103DF0006413002070000020780000208000002064
:103E00007C0000208C00002000BFFFF70BFF06485D
:103E100000680128F9D94FF0805004490860BFF3C9
:103E20004F8FBFF36F8FF0E7D006002004ED00E066
:103E30002DE9F04106460D4617469846069C0DB9F9
:103E4000246000E02760E66325640121204601F03C
:103E5000CDF884F84C80BDE8F0812DE9F05F824612
:103E60000E4690469B460A9F0C9C4FEA8801A5226D
:103E7000206BFCF747FBA8F10100216B01EB8009E7
:103E800029F0070909F0070008B9012000E0002027
:103E900050B900BF502080F31188BFF34F8FBFF39C
:103EA0006F8F00BF00BFFEE786B1002507E0715DA0
:103EB00004F134004155705D00B902E06D1C102D15
:103EC000F5D300BF00214320015502E0002084F813
:103ED0003400382F00D33727E762E76400202065DD
:103EE000201D00F0D2FB04F1180000F0CEFB24618D
:103EF000C7F13800A06164620020606584F8580052
:103F00005A465146484600F071FB20600B9808B1B4
:103F10000B980460BDE8F09F10B5002407E004EBA7
:103F200084010F4A02EB810000F0A2FB641C382CD4
:103F3000F5D30C4800F09CFB0B4800F099FB0B48B4
:103F400000F096FB0A4800F093FB0A4800F090FB53
:103F500004480949086004480849086010BD000089
:103F6000D0060020300B0020440B0020580B00200E
:103F70006C0B0020800B002020000020240000207B
:103F800010B50146164800E0006803688B42FBD379
:103F90000246436813448B4204D143684C6823446F
:103FA000436001460A464B6813440468A34211D19A
:103FB0000C4C03682468A34208D04B68046864680A
:103FC00023444B6003681B680B6005E0054B1B68CE
:103FD0000B6001E003680B60884200D0016010BDF7
:103FE00070000020780000202DE9F04104460D46C5
:103FF00016461F464FF0000865602461B5420CD894
:10400000F01BA169884202D34FF0010811E0211D85
:104010000948006800F03CFB0BE0BE4204D2BD4200
:1040200002D34FF0010804E0211D0448006800F0AD
:104030002FFB4046BDE8F0815C00002058000020C6
:1040400070B5054600F04AFBA86B08B9012400E0F2
:10405000002400F06DFB204670BD70B5054600F0F1
:104060003DFBA86BE96B884201D1012400E00024EC
:1040700000F05EFB204670BDF8B505460F461A48B5
:104080000068C068C468201D00F0C6FA94F82800D3
:1040900000F00400E8B1A06941192B463A462046D9
:1040A000FFF7A2FFD8B1002003462A460146009040
:1040B000204601F047FD064656B900BF502080F368
:1040C0001188BFF34F8FBFF36F8F00BF00BFFEE7B4
:1040D00005E094F8280020F0010084F8280020462C
:1040E000216A8847F8BD000058000020F0B587B06D
:1040F000A0E00398002811DA04AE56B900BF5020A2
:1041000080F31188BFF34F8FBFF36F8F00BF00BFE5
:10411000FEE7D6E90020B168904700BF0398002869
:10412000E6DB059C606908B9012000E0002010B9B9
:10413000201D00F071FA02A800F0DEF80546039891
:104140000A2875D2DFE800F009050739416306083F
:104150003A4200BF00BF00BF00BF94F8280040F003
:10416000010084F828000498A269811803462A46B1
:104170002046FFF739FFF8B12046216A884794F8B6
:10418000280000F00400B8B1002000900498A16954
:10419000421800231946204601F0D4FC074657B9BF
:1041A00000BF502080F31188BFF34F8FBFF36F8F94
:1041B00000BF00BFFEE700BF3BE000BF94F828004F
:1041C00020F0010084F8280033E000BF94F82800B4
:1041D00040F0010084F828000498A061A06908B1AB
:1041E000012000E0002050B900BF502080F311886A
:1041F000BFF34F8FBFF36F8F00BF00BFFEE7A06913
:1042000041192B462A462046FFF7EEFE11E094F8AE
:10421000280000F0020018B9204600F0A7FA05E0D7
:1042200094F8280020F0010084F8280001E0FFE75E
:1042300000BF00BF002203A90448006801F0E4F8B1
:1042400000287FF456AF07B0F0BD000060000020EA
:10425000F8B505460C4600F00DFD684600F04CF838
:104260000646009820BB44B9B54206D801F0ACFB25
:1042700031462846FFF700FF1CE03CB10E480068BD
:10428000006808B9012000E000200446A91B22466E
:104290000A48006800F022FB01F096FB50B94FF08D
:1042A000805007490860BFF34F8FBFF36F8F01E065
:1042B00001F08AFBF8BD00005C00002060000020D7
:1042C00004ED00E00A490968096809B9012100E024
:1042D000002121B14FF0FF31064A116006E0044988
:1042E0000968C968C868034A4168116070470000DE
:1042F000200000204C00002070B5044601F01EFA9A
:10430000054607480068854204D200F00BF80120FA
:10431000206001E00020206001480560284670BD53
:10432000680000202DE9F84334E025480068C068A3
:10433000056823480068C068C468201D00F06CF957
:104340002046216A884794F8280000F0040008B34A
:10435000A0694619AE4207D966602461211D18483C
:10436000006800F095F915E0002003462A46014652
:104370000090204601F0E6FB074657B900BF5020E9
:1043800080F31188BFF34F8FBFF36F8F00BF00BF63
:10439000FEE700BF0A480068006808B9012000E095
:1043A00000200028C1D00648D0F8008005480068E9
:1043B000034908600348C0F80080BDE8F8830000A6
:1043C000580000205C0000200E480068401C08B91E
:1043D000012000E0002050B900BF502080F3118878
:1043E000BFF34F8FBFF36F8F00BF00BFFEE700BF6B
:1043F000502080F31188BFF34F8FBFF36F8F00BF42
:1044000000BFFEE79000002008B500BF6846FFF738
:10441000A9FC044620460099FFF71AFFFFF766FE45
:10442000F4E770B5044600F059F994F9455010E0EE
:10443000606A08B9012000E0002038B904F12400C6
:1044400001F076FA18B100F077FB00E003E0681E97
:1044500045B2002DECDC00BFFF2084F8450000F0E1
:1044600067F900F03BF994F9445010E0206908B96D
:10447000012000E0002048B904F1100001F058FAD2
:1044800008B100F059FB681E45B200E001E0002DC4
:10449000ECDC00BFFF2084F8440000F049F970BD57
:1044A0002DE9F04104464FF0000800F0E3FB4948D5
:1044B000006808B9FFF76AFC4748006820400028F8
:1044C00070D1D4B1083404F00700B0B104F0070093
:1044D000C0F10800044404F0070008B9012000E01E
:1044E000002050B900BF502080F31188BFF34F8FD8
:1044F000BFF36F8F00BF00BFFEE7002C52D03748DC
:10450000006884424ED8364E3046056801E02E469B
:104510002D686868A04202D228680028F7D12D488B
:10452000006885423ED0306800F108082868306095
:104530006868001B102819D92F1907F0070008B95F
:10454000012000E0002050B900BF502080F3118806
:10455000BFF34F8FBFF36F8F00BF00BFFEE76868E8
:10456000001B78606C603846FFF70AFD1B496868DD
:104570000968081A19490860084600681949096855
:10458000884203D2154800681649086012496868D5
:104590000968084368600020286013480068401CD0
:1045A0001149086001F010FA08F0070008B901206D
:1045B00000E0002050B900BF502080F31188BFF305
:1045C0004F8FBFF36F8F00BF00BFFEE74046BDE8CF
:1045D000F0810000780000208C0000207C0000208A
:1045E000700000208000002084000020001F4FF099
:1045F00080730360001F21F001030360001F054B5F
:10460000036014380260001F6FF00203036020385B
:1046100070470000C943000801460A69D1E901302A
:104620009860D1E9010358605068884201D18868D8
:104630005060002008611068401E106010687047CC
:10464000034B0360034B0B60802313607047000033
:10465000AC0C0020080D0020034B0360034B0B60E3
:104660004FF4807313607047080F0020640F002020
:1046700000F1080141604FF0FF31816000F1080155
:10468000C160016100210160704700210161704734
:1046900010B502460B685C1C0CB9106907E002F10A
:1046A000080000E04068446824689C42FAD94468E5
:1046B0004C604C68A160886041600A611468641CA9
:1046C000146010BD42684A6093688B6093685960BB
:1046D0009160086103685B1C0360704700BF502055
:1046E00080F31188BFF34F8FBFF36F8F00BF0E4869
:1046F0000068401C0C49086008460068012812D177
:104700000A480068C0B208B9012000E0002050B992
:1047100000BF502080F31188BFF34F8FBFF36F8F1E
:1047200000BF00BFFEE770479000002004ED00E0EE
:104730000D48006850B900BF502080F31188BFF3C6
:104740004F8FBFF36F8F00BF00BFFEE706480068C2
:10475000401E054908600846006820B9002080F323
:10476000118800BF00BF70479000002070B506465A
:104770003546002E44D0083D2C4622496068096821
:10478000084008B1012000E0002050B900BF5020CF
:1047900080F31188BFF34F8FBFF36F8F00BF00BF4F
:1047A000FEE7206808B9012000E0002050B900BFF2
:1047B000502080F31188BFF34F8FBFF36F8F00BF7E
:1047C00000BFFEE70F49606809680840C0B1206873
:1047D000B0B90C49606809688843606000F04AFA23
:1047E0000949606809680844074908602046FFF7DE
:1047F000C7FB06480068401C0449086001F0E4F863
:1048000070BD00008C0000207C000020880000208B
:1048100000204FF0E02108618861064800684FF4ED
:104820007A71B0FBF1F0401E4FF0E02148610720A3
:10483000086170471800002070B5FBF751FD044671
:10484000102C16D304F1E02090F8F05315480078AE
:10485000854201DB012000E0002050B900BF50205C
:1048600080F31188BFF34F8FBFF36F8F00BF00BF7E
:10487000FEE70D48006800F4E0600C4909688842D2
:1048800001D8012000E0002050B900BF502080F383
:104890001188BFF34F8FBFF36F8F00BF00BFFEE7DC
:1048A00070BD0000940000200CED00E09800002096
:1048B000024600200BE0084B53F8303033B9064B6A
:1048C00043F8301003EBC0035A6002E0401C082894
:1048D000F1D300BF70470000900600202DE9F041A1
:1048E00005460E4617462C46FFF7F8FE94F944009D
:1048F000401C10B9002084F8440094F94500401C85
:1049000010B9002084F84500FFF712FFA06B28B90A
:104910003A46314604F1240000F030F92046FFF712
:1049200080FDBDE8F081000070B504460025D4B1DB
:104930001248006808B9012000E0002050B900BF0B
:10494000502080F31188BFF34F8FBFF36F8F00BFEC
:1049500000BFFEE700F08EF900212046FFF78EF839
:1049600001F032F805463DB94FF080500449086027
:10497000BFF34F8FBFF36F8F70BD00005400002056
:1049800004ED00E02DE9F04704460F464FF0000922
:1049900054B900BF502080F31188BFF34F8FBFF38D
:1049A0006F8F00BF00BFFEE70FB1012000E00020C5
:1049B00050B900BF502080F31188BFF34F8FBFF371
:1049C0006F8F00BF00BFFEE72048006808B90120D4
:1049D00000E0002050B900BF502080F31188BFF3E1
:1049E0004F8FBFF36F8F00BF00BFFEE700F042F9AB
:1049F000174806682068C5192068B04207D92068A2
:104A0000A8420BD9B54209D94FF0010906E0206848
:104A1000A84201D8B54201D94FF001092560B9F18A
:104A2000000F03D0A81B0021FFF728F800F0CCFFEF
:104A30008046B8F1000F07D14FF08050054908605B
:104A4000BFF34F8FBFF36F8FBDE8F0875400002096
:104A50003000002004ED00E070B50546FFF73EFE93
:104A600015B92748006800E028460446201DFFF7D6
:104A7000D3FDA06A18B104F11800FFF7CDFD21485D
:104A80000068401C1F4908601D480068844209D125
:104A9000211D1D48FFF716FE1C480068401C1B49DD
:104AA000086009E01A480068401E1949086020465D
:104AB000FFF730F9FFF706FCFFF73AFE15480068EC
:104AC000E8B10F480068844219D11348006808B95A
:104AD000012000E0002050B900BF502080F3118871
:104AE000BFF34F8FBFF36F8F00BF00BFFEE74FF0E4
:104AF00080500A490860BFF34F8FBFF36F8F70BDBE
:104B00001C000020480000206C0B00202800002022
:104B10002C000020380000205400002004ED00E0AC
:104B20000349096801600349096841607047000052
:104B30004400002030000020012001490860704737
:104B40004000002070B504460D4654B900BF502007
:104B500080F31188BFF34F8FBFF36F8F00BF00BF8B
:104B6000FEE70548016818312046FFF791FD012155
:104B70002846FEF783FF70BD1C00002070B5054677
:104B80000E46144655B900BF502080F31188BFF37C
:104B90004F8FBFF36F8F00BF00BFFEE7064801686D
:104BA00018312846FFF78EFD0CB14FF0FF36214635
:104BB0003046FEF763FF70BD1C00002010B586B0C4
:104BC00000200590049003AA04A905A8FFF738FD6A
:104BD0000022DDE904101346CDE9002102901EA158
:104BE0001F48039A00F03CFD1E4908600846006813
:104BF00008B1012400E00024012C02D100F066FF7E
:104C00000446012C15D100BF502080F31188BFF35A
:104C10004F8FBFF36F8F00BF4FF0FF301249086016
:104C200001201249086000201149086000F072F864
:104C300010E0601C08B1012000E0002050B900BF66
:104C4000502080F31188BFF34F8FBFF36F8F00BFE9
:104C500000BFFEE706B010BD49444C45000000000F
:104C6000093E0008500000204C00002038000020C1
:104C70003000002002480068401C0149086070476D
:104C8000540000201E48006818B101201D4908602A
:104C900034E000201B4908601B4801680CE051B952
:104CA00000BF502080F31188BFF34F8FBFF36F8F89
:104CB00000BF00BFFEE7491E01EB8100134A52F816
:104CC000200008B9012000E000200028E7D101EB16
:104CD00081020E4B03EB820042685268426000F191
:104CE00008024368934202D14268526842604268B7
:104CF000D268074B1A600448016000BF704700008B
:104D0000540000204000002034000020D006002085
:104D10001C0000201CB5524800685249884201D04E
:104D2000012000E0002050B900BF502080F311881E
:104D3000BFF34F8FBFF36F8F00BF00BFFEE7484840
:104D400000684849491E884201D0012000E0002047
:104D500050B900BF502080F31188BFF34F8FBFF3CD
:104D60006F8F00BF00BFFEE73F4908460078019003
:104D7000FF200A4610700846007800909DF8000059
:104D800000F0F0009DF80020904201D1012000E0E9
:104D9000002050B900BF502080F31188BFF34F8F1F
:104DA000BFF36F8F00BF00BFFEE79DF8000000F06B
:104DB00050002E4A107007202D4A106009E02C4840
:104DC0000068401E2A4A10609DF800004006000E50
:104DD00000909DF8000000F080008028EFD024486B
:104DE0000068C0F10700042801D1012000E0002084
:104DF00050B900BF502080F31188BFF34F8FBFF32D
:104E00006F8F00BF00BFFEE7194800680002184A14
:104E100010601046008800F4E0601060124A0198AB
:104E200010700F482030006840F470000C492031A9
:104E300008600846006840F070400860FFF7E8FC32
:104E400000200C490860FBF713FA0B48006840F09B
:104E5000404009490860FBF7F7F900201CBD00003D
:104E600000ED00E071C20F4100E400E0940000207A
:104E7000980000209000002034EF00E010B500BF43
:104E8000502080F31188BFF34F8FBFF36F8F00BFA7
:104E900000F05AFC18B14FF080500449086000BF80
:104EA000002080F3118800BF10BD000004ED00E079
:104EB0002DE9F84305460E4617460DB1012000E0E6
:104EC000002050B900BF502080F31188BFF34F8FEE
:104ED000BFF36F8F00BF00BFFEE705FB06F808F1C8
:104EE0005000FFF7DDFA044664B1A14609F150090C
:104EF000002084F846003B464A4631462846009446
:104F0000FEF796FF2046BDE8F8832DE9F84380467A
:104F10000E4617461D46DDF82090B8F1000F01D06F
:104F2000012000E0002050B900BF502080F311881C
:104F3000BFF34F8FBFF36F8F00BF00BFFEE70DB110
:104F4000012000E0002050B900BF502080F31188FC
:104F5000BFF34F8FBFF36F8F00BF00BFFEE707B1F6
:104F60000EB1012000E0002050B900BF502080F3B6
:104F70001188BFF34F8FBFF36F8F00BF00BFFEE7F5
:104F800007B90EB9012000E0002050B900BF502041
:104F900080F31188BFF34F8FBFF36F8F00BF00BF47
:104FA000FEE7502000900098502801D1012000E039
:104FB000002050B900BF502080F31188BFF34F8FFD
:104FC000BFF36F8F00BF00BFFEE700BF2C464CB1A0
:104FD000012084F846004B463A463146404600944C
:104FE000FEF726FF2046BDE8F883000070B50546B1
:104FF0000E462C4654B900BF502080F31188BFF3F1
:105000004F8FBFF36F8F00BF00BFFEE7FFF766FB58
:10501000D4E90F12206801FB0200A0600020A06309
:1050200020686060E06B401E226C216800FB02116A
:10503000E160FF2084F8440084F845009EB92069AF
:1050400008B9012000E00020A8B904F1100000F028
:105050006FFC80B14FF0805009490860BFF34F8F5B
:10506000BFF36F8F07E004F11000FFF701FB04F1BD
:105070002400FFF7FDFAFFF75BFB012070BD000085
:1050800004ED00E02DE9FF4383B0064688461D4647
:105090004FF00009344654B900BF502080F3118806
:1050A000BFF34F8FBFF36F8F00BF00BFFEE7B8F1B4
:1050B000000F01D1206C08B9012000E0002050B998
:1050C00000BF502080F31188BFF34F8FBFF36F8F65
:1050D00000BF00BFFEE7022D02D1E06B012801D125
:1050E000012000E0002050B900BF502080F311885B
:1050F000BFF34F8FBFF36F8F00BF00BFFEE700F01D
:105100000DFB08B9059808B9012000E0002050B94E
:1051100000BF502080F31188BFF34F8FBFF36F8F14
:1051200000BF00BFFEE700BFFFF7D8FAA06BE16B3E
:10513000884201D3022D28D12A4641462046FEF757
:10514000AAFD0746606A08B9012000E0002068B99E
:1051500004F1240000F0ECFB88B14FF0805032499C
:105160000860BFF34F8FBFF36F8F08E03FB14FF080
:1051700080502D490860BFF34F8FBFF36F8FFFF74B
:10518000D7FA012007B0BDE8F083059818B9FFF7FA
:10519000CFFA0020F6E7B9F1000F04D101A8FFF71C
:1051A000BFFC4FF00109FFF7C3FAFFF763FDFFF7FC
:1051B00095FA94F94400401C10B9002084F844008A
:1051C00094F94500401C10B9002084F84500FFF711
:1051D000AFFA05A901A800F0CBF9F0B92046FEF717
:1051E0003CFFA0B104F110000599FFF7ABFC20468D
:1051F000FFF717F900F0E8FB002895D14FF0805039
:1052000009490860BFF34F8FBFF36F8F8CE72046CB
:10521000FFF707F900F0D8FB86E72046FFF701F912
:1052200000F0D2FB0020ADE704ED00E02DE9F84FDF
:1052300007468A4690461E463C4654B900BF502059
:1052400080F31188BFF34F8FBFF36F8F00BF00BF94
:10525000FEE7BAF1000F01D1206C08B9012000E08F
:10526000002050B900BF502080F31188BFF34F8F4A
:10527000BFF36F8F00BF00BFFEE7022E02D1E06BCD
:10528000012801D1012000E0002050B900BF5020CA
:1052900080F31188BFF34F8FBFF36F8F00BF00BF44
:1052A000FEE7FFF7C9FA00BF5021EFF3118081F349
:1052B0001188BFF34F8FBFF36F8F00BF0546A06B00
:1052C000E16B884201D3022E25D194F945B0A06B41
:1052D0000090324651462046FEF7DDFC0BF10100FE
:1052E00088B9606A08B9012000E0002050B904F1D3
:1052F000240000F01DFB28B1B8F1000F02D00120FE
:10530000C8F8000004E00BF1010040B284F8450049
:105310004FF0010901E04FF0000900BF85F311884B
:1053200000BF4846BDE8F88F2DE9F04706460F4616
:10533000344654B900BF502080F31188BFF34F8F1B
:10534000BFF36F8F00BF00BFFEE7206C08B90120DC
:1053500000E0002050B900BF502080F31188BFF357
:105360004F8FBFF36F8F00BF00BFFEE7206808B903
:10537000A06808B9012000E0002050B900BF50200B
:1053800080F31188BFF34F8FBFF36F8F00BF00BF53
:10539000FEE7FFF751FA00BF5021EFF3118081F3D0
:1053A0001188BFF34F8FBFF36F8F00BF0546D4F84E
:1053B0003890E06B48451ED994F945A009F10100E9
:1053C000A0630AF1010070B9606A08B9012000E029
:1053D000002068B904F1240000F0AAFA40B13FB1FE
:1053E0000120386004E00AF1010040B284F8450071
:1053F0004FF0010801E04FF0000800BF85F311886D
:1054000000BF4046BDE8F0872DE9F74183B005466F
:105410000E464FF000082C4654B900BF502080F3D0
:105420001188BFF34F8FBFF36F8F00BF00BFFEE740
:105430000EB9206C08B9012000E0002050B900BF6F
:10544000502080F31188BFF34F8FBFF36F8F00BFE1
:1054500000BFFEE700F062F908B9059808B901201D
:1054600000E0002050B900BF502080F31188BFF346
:105470004F8FBFF36F8F00BF00BFFEE700BFFFF786
:105480002DF9A76BF7B131462046FEF7EFFB781EEA
:10549000A063206908B9012000E0002060B904F190
:1054A000100000F045FA38B14FF080502F490860E5
:1054B000BFF34F8FBFF36F8FFFF73AF9012006B0AC
:1054C000BDE8F081059818B9FFF732F90020F6E73A
:1054D000B8F1000F04D101A8FFF722FB4FF001083B
:1054E000FFF726F9FFF7C6FBFFF7F8F894F9440039
:1054F000401C10B9002084F8440094F94500401C79
:1055000010B9002084F84500FFF712F905A901A899
:1055100000F02EF8F0B92046FEF792FDA0B104F19C
:1055200024000599FFF70EFB2046FEF77AFF00F0F6
:105530004BFA0028A3D14FF080500C490860BFF30C
:105540004F8FBFF36F8F9AE72046FEF76AFF00F098
:105550003BFA94E72046FEF764FF00F035FA204658
:10556000FEF76EFD00288AD00020A8E704ED00E0D9
:1055700070B505460C4655B900BF502080F3118820
:10558000BFF34F8FBFF36F8F00BF00BFFEE754B96B
:1055900000BF502080F31188BFF34F8FBFF36F8F90
:1055A00000BF00BFFEE7FFF799F81248026868687D
:1055B000131A2068401C08B9002617E00E49286815
:1055C0000968884204D06868904201D801260DE03D
:1055D0002068984207D92068C01A20602846FFF743
:1055E0009FFA002602E0002020600126FFF7A0F8C5
:1055F000304670BD30000020440000202DE9FF4FF0
:1056000085B0804689461746DDE912ABB800FEF743
:1056100047FF064656B15C20FEF742FF04460CB138
:10562000266304E03046FFF7A1F800E000248CB1C7
:10563000002084F85900CDE900ABCDE902403A469C
:1056400049464046089BFEF708FC2046FEF754FA00
:10565000012501E04FF0FF35284609B0BDE8F08F85
:105660002DE9F04F85B00746884691469A46DDE918
:105670000EB6109C0EB1012000E0002050B900BF12
:10568000502080F31188BFF34F8FBFF36F8F00BF9F
:1056900000BFFEE70CB1012000E0002050B900BFC0
:1056A000502080F31188BFF34F8FBFF36F8F00BF7F
:1056B00000BFFEE75C20039003985C2801D1012025
:1056C00000E0002050B900BF502080F31188BFF3E4
:1056D0004F8FBFF36F8F00BF00BFFEE700BFB4B1B5
:1056E000AEB125462C462E63022085F859000020D5
:1056F00004A953464A46CDE900B1CDE902504146DE
:105700003846FEF7AAFB2846FEF7F6F901E000202E
:105710000490049805B0BDE8F08F000005490968C1
:1057200009B9012005E00449096809B9022000E02F
:10573000002070473800002054000020014908680C
:1057400070470000300000202DE9F0414FF00008C4
:105750004348006800287BD142480068451C414806
:10576000056015BB40480068006808B9012000E0EA
:10577000002050B900BF502080F31188BFF34F8F35
:10578000BFF36F8F00BF00BFFEE737480768374899
:105790000068354908603548076035480068401C96
:1057A00033490860FEF78EFD00BF3248006885422D
:1057B0003BD300BF2C480068006808B9012000E016
:1057C000002020B14FF0FF302A4908602CE0264825
:1057D0000068C068C4686668B54202D225480660A1
:1057E00022E0201DFEF718FFA06A18B104F118008E
:1057F000FEF712FF2049E06A0968884202D91E4973
:10580000E06A0860E16A01EB81011C4A02EB810059
:10581000211DFEF757FF1A49E06A0968C96A8842E4
:10582000C8D34FF00108C5E700BF15480068C06A3B
:1058300000EB8000114951F82000012801D94FF0F8
:1058400001081048006808B14FF0010805E0FFE7C3
:105850000D480068401C0C4908604046BDE8F081D6
:1058600054000020300000202000002024000020F0
:10587000440000204C00002034000020D00600200E
:105880001C000020400000203C00002070B50546B0
:105890002C460026002D43D022480068844201D1C6
:1058A000012000E0002050B900BF502080F3118893
:1058B000BFF34F8FBFF36F8F00BF00BFFEE7206DB8
:1058C00050B900BF502080F31188BFF34F8FBFF352
:1058D0006F8F00BF00BFFEE7206D401E2065E16CAA
:1058E000E06A88421CD0206DD0B9201DFEF794FEDE
:1058F000E06CE062E06AC0F13800A0610A49E06A49
:105900000968884202D90849E06A0860E16A01EB47
:105910008101064A02EB8100211DFEF7D3FE01261C
:10592000304670BD1C00002034000020D00600204E
:1059300070B50646F068C46854B900BF502080F3C3
:105940001188BFF34F8FBFF36F8F00BF00BFFEE71B
:1059500004F11800FEF760FE15480068A0B9201D8C
:10596000FEF75AFE1349E06A0968884202D91149D4
:10597000E06A0860E16A01EB81010F4A02EB8100F5
:10598000211DFEF79FFE04E004F118010B48FEF70D
:1059900099FE0B49E06A0968C96A884204D9012561
:1059A00001200849086000E00025284670BD00007D
:1059B0005400002034000020D0060020580B0020A6
:1059C0001C0000204000002070B50024002636484E
:1059D000006850B900BF502080F31188BFF34F8F8B
:1059E000BFF36F8F00BF00BFFEE7FEF777FE2E48C4
:1059F0000068401E2C4908600846006800284ED107
:105A00002A48006800284AD023E02948C068C468B2
:105A100004F11800FEF700FE201DFEF7FDFD2549EC
:105A2000E06A0968884202D92249E06A0860E16AAE
:105A300001EB8101204A02EB8100211DFEF742FEAD
:105A40001E49E06A0968C96A884202D301201C49DC
:105A500008601748006808B9012000E0002000280D
:105A6000D3D00CB1FEF72EFC1648056865B100BF17
:105A7000FFF76AFE10B10120114908606D1E002D6C
:105A8000F6D100200F4908600D48006838B10126A2
:105A900030070D490860BFF34F8FBFF36F8FFEF7DC
:105AA00047FE304670BD0000540000202C0000204E
:105AB000580B002034000020D00600201C000020DD
:105AC000400000203C00002004ED00E010B586B04E
:105AD0000024FEF76DF816480068D0B1002005904C
